:020000040800F2
:10000000B80E00206D020008913300080F2D000883
:100010002D3100087F040008C13D000800000000E9
:10002000000000000000000000000000A9340008EB
:100030000F0600080000000009340008AB34000877
:10004000870200088702000887020008870200086C
:10005000870200088702000887020008870200085C
:10006000870200088702000887020008A50400082C
:10007000870200088702000887020008870200083C
:1000800087020008B50400088702000887020008FC
:10009000850400088702000887020008870200081C
:1000A000870200088702000887020008870200080C
:1000B00087020008870200088702000887020008FC
:1000C00087020008870200088702000887020008EC
:1000D000870200082D3C00088702000887020008FC
:1000E00087020008870200088702000887020008CC
:1000F00087020008870200088702000887020008BC
:1001000087020008870200088702000887020008AB
:10011000870200088702000887020008870200089B
:1001200087020008C5040008D504000887020008FB
:10013000870200088702000887020008870200087B
:10014000870200089504000887020008870200085B
:1001500087020008E5040008F5040008513D000886
:10016000870200088702000887020008870200084B
:1001700087020008870200088702000800000000CC
:100180008702000887020008870200087D35000802
:10019000870200088702000887020008870200081B
:1001A00000000000000000008702000800F002F8D4
:1001B00000F04CF80AA090E8000C82448344AAF1B5
:1001C0000107DA4501D100F041F8AFF2090EBAE8B3
:1001D0000F0013F0010F18BFFB1A43F0010318477B
:1001E00028780000487800000A4410F8014B14F009
:1001F0000F0508BF10F8015B240908BF10F8014B78
:100200006D1E05D010F8013B6D1E01F8013BF9D1C0
:10021000641E03D0641E01F8015BFBD19142E4D35C
:10022000704700000023002400250026103A28BF54
:1002300078C1FBD8520728BF30C148BF0B60704758
:100240001FB507F0BCFA1FBD10B510BD00F0E2F8F5
:100250001146FFF7F5FF05F08FFC00F000F903B43D
:10026000FFF7F2FF03BC00F003F9000009488047E4
:1002700009480047FEE7FEE7FEE7FEE7FEE7FEE788
:10028000FEE7FEE7FEE7FEE704480549054A064BA0
:100290007047000069350008AD010008B80800206B
:1002A000B80E0020B80A0020B80A002053EA020C59
:1002B00000F069802DE9F04B4FF00006002B1FBFC6
:1002C000B3FA83F503FA05F424FA05F65E4012BF8B
:1002D0001643B2FA82F502FA05F4C5F120051EBFF5
:1002E00022FA05FC44EA0C04203556EA044C4FEA95
:1002F000144418BF641C4FF000084FF000099042EE
:1003000071EB030C39D3002919BFB1FA81F701FA57
:1003100007F6B0FA80F700FA07F6C7F120071EBF0C
:1003200020FA07FC46EA0C062037B6FBF4FCA7EBE4
:100330000507103F07F01F0BCBF120060CFA0BFB53
:100340002CFA06F644BFB3460026202FA4BF5E4613
:100350004FF0000B5BEA060C08BF4FF0010B19EBE6
:100360000B09ABFB027C48EB0608C01B06FB02CC6A
:100370000BFB03CC71EB0C01C1E70B460246414677
:100380004846BDE8F08B13B54FF000004FF0000178
:10039000AFF30080BDE81C4070474FF0000200B58D
:1003A000134694469646203922BFA0E80C50A0E898
:1003B0000C50B1F12001BFF4F7AF090728BFA0E846
:1003C0000C5048BF0CC05DF804EB890028BF40F812
:1003D000042B08BF704748BF20F8022B11F0804F54
:1003E00018BF00F8012B704770477047704710B571
:1003F00000F008F8006810BD10B5044600F002F8DF
:10040000046010BD0048704758080020004870473D
:10041000580800207546FFF7F9FFAE46050069460B
:10042000534620F00700854618B020B5FFF72CFF93
:10043000BDE820404FF000064FF000074FF00008E5
:100440004FF0000B21F00701AC46ACE8C009ACE866
:10045000C009ACE8C009ACE8C0098D46704710B5CA
:100460000446AFF300802046BDE81040FFF7F7BE1A
:1004700001491820ABBEFEE726000200704700BF0E
:10048000FEE7000010B5024800F096FB10BD00002A
:100490003004002010B5024800F08EFB10BD0000B3
:1004A0005804002010B5024800F0F0FE10BD000016
:1004B0000006002010B5024800F0E8FE10BD000064
:1004C000A005002010B5024800F0E0FE10BD0000BD
:1004D0002007002010B5024800F0D8FE10BD000033
:1004E0006006002010B5024800F0D0FE10BD0000EC
:1004F0008007002010B5024800F0C8FE10BD0000C3
:10050000C00600200146087810381823B0FBF3F22B
:100510000848805CC865032A05D908686FF309009C
:10052000001D886503E008686FF309008865886D21
:1005300070470000D2770008014600208A6A8B6964
:10054000CBB932B1012A0DD0022A03D0032A10D12F
:100550000EE000BFCB6A03F08073B3F1807F00D15F
:10056000012007E0CB6AB3F1C07F00D1012001E098
:1005700000E000BF34E08B69B3F5005F1AD132B1FF
:10058000012A07D0022A03D0032A11D10AE000BFB2
:1005900001200EE0CB6A03F08073B3F1807F00D1BD
:1005A000012006E0CB6AB3F1C07F00D1012000E05A
:1005B00000BF15E032B1012A05D0022A04D0032A77
:1005C0000CD103E000BF00BF012008E0CB6A03F0BC
:1005D0008073B3F1807F00D1012000E000BF00BF35
:1005E000704730B50468246824F4802405682C60C2
:1005F000046863608468402C04D10468A2600468C5
:10060000E16003E00468A1600468E26030BD704707
:1006100000BF024800783F28FBD17047A8000020A7
:1006200072B600BFFEE700004178027801EB0221BC
:10063000514A1180C178827801EB02214F4A118022
:100640004179027901EB02214D4A11804A4909881A
:1006500000EE101AB8EE400A4A4981ED000A4749F7
:10066000098800EE101AB8EE400A464981ED020AE8
:100670001146098800EE101AB8EE400A414981ED92
:10068000010A91ED000A4049D1ED000AB4EEE00AFA
:10069000F1EE10FA0CDD3B4991ED000A3A49D1ED3B
:1006A000000AB0EE001A01EE600A364981ED000A38
:1006B000344991ED020A3449D1ED000AB4EEE00A62
:1006C000F1EE10FA0CDD2F4991ED020A2E49D1ED21
:1006D000000AB0EE001A01EE600A2A4981ED020A12
:1006E000284991ED010A2849D1ED000AB4EEE00A4B
:1006F000F1EE10FA0ADD234991ED010A2249D1ED0C
:10070000000A30EE600A1F4981ED010A1D4991ED92
:10071000010A1D49D1ED000A80EE201A1B4991ED16
:10072000000A21EE000A174981ED010A91ED020A43
:100730001549D1ED000A80EE201A154991ED000A05
:1007400021EE000A0F4981ED020A91ED000A0E49DF
:10075000D1ED000A80EE201A0E4991ED000A21EE3B
:10076000000A084981ED000A91ED000AD1ED010A65
:1007700091ED021A704700004C0100204E0100204C
:1007800050010020E00700206C01002070010020D3
:10079000780100207401002010B5024692F8203044
:1007A000012B01D0022B06D1106840690843146860
:1007B0006061002010BD506A40F48020506201202A
:1007C000F8E7F0B504460D461E4694F82070206800
:1007D0008368A86800B900E000BF012F01D0022F94
:1007E0007CD103F0806030B903F0006018B903F0E9
:1007F0008050002873D0C3F30161022905D9606AD3
:1008000040F4000060620120F0BD012088403060AB
:10081000A86860B9B5F800C0E86840EA4C5C206898
:1008200000F5C07000EB0110C0F800C00FE0D5E982
:1008300001C040EACC00D5F80CC040EA0C00D4F866
:1008400000C00CF5C07C0CEB011CCCF80000D5F806
:1008500010C0206800F5C07000EB0110C0F804C0A3
:10086000287D01280ED1206800F5C07000EB011032
:10087000406840F4807C206800F5C07000EB0110F7
:10088000C0F804C0D079000692F806C040EA0C40D7
:1008900092F805C040EA0C2C10794CEA000C206854
:1008A00000F5C07000EB0110C0F80CC0D078000655
:1008B00092F802C040EA0C4092F801C040EA0C20D5
:1008C00092F800C040EA0C00D4F800C00CF5C07CDF
:1008D0000CEB011CCCF80800206801E016E00FE0EA
:1008E00000F5C07000EB0110006840F0010C2068BA
:1008F00000F5C07000EB0110C0F800C0002083E7D5
:10090000606A40F40010606201207DE7606A40F494
:1009100080206062012077E7F0B504460A4621682E
:1009200094F82050012D01D0022D7ED1424901F5CD
:100930000071086840F001000860086820F47C50ED
:1009400008600868566A40EA06200860107D00F0DA
:100950001F06012000FA06F3C8699843C861A1F593
:100960000071D069C8B9D1F80C029843C1F80C02E3
:10097000908880B2968940EA064601F51070576962
:1009800040F83760108880B2168940EA064601F5C3
:100990001070576900EBC7004660D069012819D173
:1009A000D1F80C021843C1F80C02908880B2168866
:1009B00040EA064601F51070576940F837609089A3
:1009C00080B2168940EA064601F51070576900EBBF
:1009D000C7004660906928B9D1F804029843C1F86D
:1009E000040204E0D1F804021843C1F804021069BB
:1009F00028B9D1F814029843C1F8140204E0D1F8E0
:100A000014021843C1F81402106A012804D1D1F865
:100A10001C021843C1F81C02D1F8000220F00100AA
:100A2000C1F800020020F0BDFFE7606A40F48020BA
:100A300060620120F7E7000000640040704770B575
:100A4000044694F82050012D01D0022D7DD151B9DA
:100A50002068C06800F0030080B9606A40F40010AC
:100A60006062012070BD2068006900F0030028B9B1
:100A7000606A40F4001060620120F3E7206800F52E
:100A8000D87000EB0110006800F0040090609068DE
:100A900040B9206800F5D87000EB01100068400DE7
:100AA000106007E0206800F5D87000EB01100068C6
:100AB000C0085060206800F5D87000EB0110006895
:100AC00000F00200D060206800F5D87000EB011043
:100AD000406800F00F001061206800F5D87000EB4E
:100AE0000110406800F47F40000A9061206800F522
:100AF000D87000EB01104068000C5061206800F5D0
:100B0000D87000EB011080681870206800F5D8706C
:100B100000EB0110806800F47F40000A58702068E4
:100B200000F5D87000EB0110806800F47F00000C25
:100B30009870206800F5D87000EB01108068000EF6
:100B4000D870206800F5D87000E02FE000EB0110AD
:100B5000C0681871206800F5D87000EB0110C068FB
:100B600000F47F40000A5871206800F5D87000EB4F
:100B70000110C06800F47F00000C9871206800F537
:100B8000D87000EB0110C068000ED87131B9206830
:100B9000C06840F020002668F06005E02068006929
:100BA00040F020002668306100205BE7606A40F476
:100BB00080206062012055E72DE9F05F04460025A2
:100BC000206846692068D0F804902068876820680B
:100BD000D0F80CA02068D0F810B02068D0F81880A9
:100BE00006F00100002855D007F00100C0B1012037
:100BF0002168886007F0020018B1204600F0D5FA9D
:100C00000EE007F0040010B145F4006508E007F0BD
:100C1000080010B145F4805502E0204600F0C4FA07
:100C200007F48070C8B14FF480702168886007F4C1
:100C3000007018B1204600F0BAFA0EE007F48060A8
:100C400010B145F4005508E007F4006010B145F418
:100C5000804502E0204600F0A9FA07F48030C8B1D0
:100C60004FF480302168886007F4003018B12046C6
:100C700000F09FFA0EE007F4802010B145F4004523
:100C800008E007F4002010B145F4803502E020466A
:100C900000F08EFA06F0080038B10AF0100020B11A
:100CA00045F4007510202168C86006F0040040B1CA
:100CB0000AF0080028B108202168C860204600F02A
:100CC0000FFA06F0020038B12068C06800F0030097
:100CD00010B1204600F006FA06F0400038B10BF0E3
:100CE000100020B145F4806510202168086106F0ED
:100CF000200040B10BF0080028B1082021680861ED
:100D0000204600F007FA06F0100038B120680069AC
:100D100000F0030010B1204600F0FEF906F40030A8
:100D200040B109F0100028B1102021684860204629
:100D300000F00AFA06F4803040B109F0080028B14A
:100D4000082021684860204600F034FA06F400408C
:100D500088B309F0040078B306F4807020B108F07D
:100D6000010008B145F0010506F4007020B108F05B
:100D7000020008B145F0020506F4806020B108F0D9
:100D8000040008B145F0040506F40060A0B108F0C5
:100D9000700088B108F07000402817D006DC1028D9
:100DA0000BD020280CD0302819D10CE0502810D0BE
:100DB000602814D110E01DE019E045F008050FE0AF
:100DC00045F010050CE045F0200509E045F0400530
:100DD00006E045F0800503E045F4807500E000BFC3
:100DE00000BF2068806920F07000216888610420BD
:100DF000216848602DB1606A284360622046FFF791
:100E00001DFEBDE8F09F70B504460CB9012070BD11
:100E100094F8200010B9204600F0B0F8206800686F
:100E200040F001002168086000F02CFD05460DE04F
:100E300000F028FD401B0A2808D9606A40F4003001
:100E40006062052084F820000120E0E72068406807
:100E500000F001000028EBD02068006820F00200BC
:100E60002168086000F00EFD05460DE000F00AFD67
:100E7000401B0A2808D9606A40F4003060620520EF
:100E800084F820000120C2E72068406800F00200DA
:100E90000028EBD1207E012806D12068006840F0B0
:100EA00080002168086005E02068006820F080006C
:100EB00021680860607E012806D12068006840F043
:100EC00040002168086005E02068006820F04000CC
:100ED00021680860A07E012806D12068006840F0E3
:100EE00020002168086005E02068006820F02000EC
:100EF00021680860E07E012806D12068006820F0A3
:100F000010002168086005E02068006840F01000CB
:100F100021680860207F012806D12068006840F021
:100F200008002168086005E02068006820F00800DB
:100F300021680860607F012806D12068006840F0C1
:100F400004002168086005E02068006820F00400C3
:100F500021680860D4E902010843216908436169F6
:100F600008436168491E08432168C8610020606227
:100F7000012084F82000002049E7000010B586B069
:100F80000446142101A8FFF708FA4F492068884257
:100F900041D14E480068401C4C4908600846006832
:100FA00001280FD100BF002000904948006840F0A0
:100FB0000070474908600846006800F00070009023
:100FC00000BF00BF00BF00200090414810380068FB
:100FD00040F008003E49103908600846006800F0FB
:100FE0000800009000BF00BF032001900220029083
:100FF00000200390032004900920059001A93548A2
:1010000000F038FB00221146142000F03FFE1420AF
:1010100000F02CFE55E030492068884251D100BFD5
:10102000002000902A48006840F08060284908604D
:101030000846006800F08060009000BF00BF2348B1
:101040000068401C214908600846006801280FD14B
:1010500000BF002000901E48006840F000701C494E
:1010600008600846006800F00070009000BF00BFF4
:1010700000BF0020009016481038006840F00200C1
:101080001349103908600846006800F0020000901B
:1010900000BF00BF4FF4405001900220029000209A
:1010A0000390032004900920059001A90B4800F04B
:1010B000E1FA00221146412000F0E8FD412000F055
:1010C000D5FD06B010BD00000064004030010020D6
:1010D00040380240000C024000680040000402401A
:1010E0007047000010B5044606480068064988426B
:1010F00007D1064B064A00212046FFF7A0FC04F06A
:10110000A5F810BD3004002000640040100100204C
:10111000E00300207047000010B504460648006850
:101120000649884207D1064B064A01212046FFF7AF
:1011300086FC04F0EBF810BD580400200068004065
:101140002401002014040020704770B5044694F870
:101150002000012822D1022084F8200020680068A5
:1011600020F001002168086000F08CFB05460DE0CE
:1011700000F088FB401B0A2808D9606A40F4003060
:101180006062052084F82000012070BD206840685E
:1011900000F001000028EBD16062F6E7606A40F4DD
:1011A000002060620120F0E7704770477047704789
:1011B00070477047704770B50446A56D00F062FB3C
:1011C000064694F83500022808D08020606500BFEC
:1011D000002084F8340000BF012070BD2068006842
:1011E00020F01600216808602068406920F0800027
:1011F00021684861206C08B9A06C28B1206800689B
:1012000020F00800216808602068006820F00100D4
:101210002168086010E000F035FB801B05280BD921
:1012200020206065032084F8350000BF002084F88A
:10123000340000BF0320D0E72068006800F0010000
:101240000028E8D194F85C103F208840A860012075
:1012500084F8350000BF002084F8340000BF00BFD0
:10126000BBE7014691F83500022803D0802048658D
:1012700001207047052081F835000868006820F0DB
:1012800001000A6810600020F3E70000F8B504468A
:10129000002000908C4800684FF41651B0FBF1F725
:1012A000A56D2E6894F85C1008208840304098B1F5
:1012B0002068006800F0040070B12068006820F029
:1012C00004002168086094F85C1008208840A86039
:1012D000606D40F00100606594F85C10012088406A
:1012E000304068B12068406900F0800040B194F857
:1012F0005C1001208840A860606D40F002006065CD
:1013000094F85C1004208840304068B12068006880
:1013100000F0020040B194F85C1004208840A860FE
:10132000606D40F00400606594F85C101020884007
:10133000304078B32068006800F0080050B394F89B
:101340005C1010208840A8602068006800F48020AD
:1013500080B12068006800F4002028B9206CC8B172
:101360002046216C884715E0A06C98B12046A16CFE
:1013700088470FE02068006800F4807028B9206872
:10138000006820F0080021680860206C10B1204639
:10139000216C884794F85C10202088403040002859
:1013A00065D02068006800F0100000285FD094F835
:1013B0005C1020208840A86094F83500052828D1CA
:1013C0002068006820F016002168086020684069E5
:1013D00020F0800021684861206C08B9A06C28B119
:1013E0002068006820F008002168086094F85C100C
:1013F0003F208840A860012084F8350000BF00200D
:1014000084F8340000BF206D10B12046216D88475C
:10141000F8BD2068006800F4802080B12068006872
:1014200000F4002028B9606C10B12046616C884738
:101430001DE0E06BD8B12046E16B884717E02068DB
:10144000006800F4807068B92068006820F010001F
:1014500021680860012084F8350000BF002084F86E
:10146000340000BFE06B10B12046E16B8847606D2F
:1014700038B3606D00F00100F0B1052084F835004C
:101480002068006820F001002168086000BF009813
:10149000401C0090B84200D905E02068006800F0C8
:1014A00001000028F3D100BF012084F8350000BFFF
:1014B000002084F8340000BFE06C10B12046E16CDD
:1014C000884700BFA4E70000400100202DE9F0415B
:1014D0000446002500F0D6F9074614B90120BDE8FE
:1014E000F081606A00B100BF022084F8350000BFBF
:1014F000002084F8340000BF2068006820F001005C
:10150000216808600AE000F0BDF9C01B052805D974
:1015100020206065032084F83500E0E7206800683B
:1015200000F001000028EED1206805682148054040
:10153000D4E901010843E16808432169084361696E
:101540000843A1690843E1690843216A0843054348
:10155000606A042803D1D4E90B01084305432068DD
:1015600005602068456925F00705606A0543606AE3
:1015700004280DD1A06A0543E06A48B12046FEF771
:10158000DBFF28B140206065012084F83500A6E724
:10159000206845612046FEF7B5FF064694F85C10CA
:1015A0003F208840B06000206065012084F835004D
:1015B000002094E73F8010F02DE9F04704460D46E7
:1015C00016461F464FF00008D4F8589000BF94F814
:1015D0003400012802D10220BDE8F087012084F800
:1015E000340000BF94F83500012825D1022084F88A
:1015F0003500002060653B46324629462046FEF70E
:10160000F0FF94F85C103F208840C9F8080020687B
:10161000006840F0160021680860206C28B120683E
:10162000006840F00800216808602068006840F009
:1016300001002168086006E000BF002084F8340043
:1016400000BF4FF002084046C6E7000070B50446F0
:1016500000F018F906462546681C10B104480078C9
:10166000054400BF00F00EF9801BA842FAD370BDFC
:101670003C010020F8B502460B460025002400205E
:101680000021E0E0012606FA01F51E6806EA0504DD
:10169000AC4274D11E7906F00306012E04D01E79E7
:1016A00006F00306022E13D190684F000326BE40B9
:1016B000B0434F00DE68BE40304390605068012662
:1016C0008E40B0431E79C6F300168E403043506002
:1016D0001E7906F00306032E09D0D0684F000326BA
:1016E000BE40B0434F009E68BE403043D0601E797C
:1016F00006F00306022E13D1CF0802F1200656F899
:1017000027004E07F70E0F26BE40B0434F07FF0ECF
:101710001E69BE403043CF0802F1200646F827007C
:1017200010684F000326BE40B0431E7906F0030642
:101730004F00BE40304310605E6806F44036002E15
:101740001DD000BF00260096414E366846F4804604
:101750003F4F3E603E46366806F48046009600BF26
:1017600000BF3C4E8F0856F827008E07370F0F2614
:10177000BE40B043384EB24202D100262EE061E0B6
:10178000364EB24201D1012628E0354EB24201D197
:10179000022623E0334EB24201D103261EE0324E30
:1017A000B24201D1042619E0304EB24201D10526E1
:1017B00014E02F4EB24201D106260FE02D4EB24268
:1017C00001D107260AE02C4EB24201D1082605E0DD
:1017D0002A4EB24201D1092600E00A268F073F0FA8
:1017E000BE4030431B4E8F0846F82700244E306819
:1017F000A0435E6806F4801606B12043204E306098
:10180000361D3068A0435E6806F4001606B120431A
:101810001B4E361D30601A4E361F3068A0435E687E
:1018200006F4003606B12043154E361F3060361FD1
:101830003068A0435E6806F4803606B12043104E3F
:10184000083E3060491C1029FFF41CAFF8BD0000B1
:1018500044380240083801400000024000040240C1
:1018600000080240000C0240001002400014024038
:1018700000180240001C02400020024000240240E8
:10188000083C014001480068704700003401002016
:10189000024692F83D0020281ED1242082F83D0007
:1018A0001068006820F00100136818601068406A32
:1018B00020F01000136858621068406A08431368EB
:1018C00058621068006840F001001368186020201A
:1018D00082F83D00002070470220FCE710B5024668
:1018E0000B46002192F83D0020281DD1242082F8CB
:1018F0003D001068006820F0010014682060106846
:10190000406A81B221F00F0141EA030081B2106800
:1019100041621068006840F00100146820602020D7
:1019200082F83D00002010BD0220FCE770B504469F
:101930000CB9012070BD94F83D0028B9002084F84E
:101940003C00204600F0DAF8242084F83D002068AE
:10195000006820F00100216808602068006840F4F9
:101960000040216808602068006820F40040216879
:10197000086000F0A5FA05465C496068884206D810
:101980005B48854201D2012007E0002005E059486C
:10199000854201D2012000E00020012800D1C9E7E2
:1019A0005548B5FBF0F62068406820F03F00304312
:1019B000216848604D496068884201D8701C07E082
:1019C0004FF4967070434FF47A71B0FBF1F0401C05
:1019D0002168096A21F03F010843216808624349F0
:1019E0006068884214D8681E61684900B0FBF1F055
:1019F000401CC0F30B00042801D204203DE0681E07
:101A000061684900B0FBF1F0401CC0F30B0034E00A
:101A1000A06838B9681E616801EB4101B0FBF1F0C4
:101A2000401C0AE0681E616801EBC10202EB011173
:101A3000B0FBF1F0401C40F48040C0F30B0008B94B
:101A400001201AE0A06848B9681E616801EB4101F5
:101A5000B0FBF1F0401CC0F30B000CE0681E6168A5
:101A600001EBC10202EB0111B0FBF1F0401CC0F32D
:101A70000B0040F4804040F400402168C9694CF6F6
:101A8000FF72914308432168C861D4E90701084304
:101A90002168096821F0C001084321680860D4E981
:101AA000031008432168896848F2FF3291430843D4
:101AB00021688860D4E9050108432168C96821F0DC
:101AC000FF0108432168C8602068006840F00100F9
:101AD0002168086000202064202084F83D00002058
:101AE000206384F83E0000BF24E70000A0860100C8
:101AF00080841E0000093D0040420F0010B586B0F2
:101B00000446142101A8FEF748FC1B4920688842BE
:101B100030D100BF002000901848006840F002005B
:101B2000164908600846006800F00200009000BFF7
:101B300000BF4FF4407001901220029000200390EB
:101B4000032004900420059001A90D48FFF792FDA1
:101B500000BF0020009009481030006840F40010D9
:101B60000649103108600846006800F40010009033
:101B700000BF00BF06B010BD005400403038024026
:101B800000040240034800680349097808440149F9
:101B900008607047340100203C01002010B50D485A
:101BA000006840F400700B4908600846006840F483
:101BB000806008600846006840F480700860032078
:101BC00000F0A2F80F2000F007F800F02BF800203A
:101BD00010BD0000003C024070B504460E4800787D
:101BE0004FF47A71B1FBF0F00C490968B1FBF0F5E4
:101BF000284600F02BFC08B1012070BD102C07D244
:101C000000222146501E00F041F80548046001E022
:101C10000120F2E70020F0E73C0100204001002015
:101C20003801002008B500BF002000900E48006871
:101C300040F480400C4908600846006800F4804089
:101C4000009000BF00BF00BF00200090081F006888
:101C500040F08050091F08600846006800F080507E
:101C6000009000BF00BF08BD44380240014608464E
:101C7000002809DB00F01F0301229A4043099B0062
:101C800003F1E023C3F8002100BF70472DE9F05FA6
:101C900080460D461646002702F0C0F80746394632
:101CA0002A46334601F00700C0F1070ABAF1040FD3
:101CB00002D94FF0040A01E0C0F1070AD14600F151
:101CC000040ABAF1070F02D24FF0000A01E0A0F1B6
:101CD000030AD4464FF0010A0AFA09FAAAF1010AE6
:101CE0000AEA020A0AFA0CFA4FF0010B0BFA0CFB93
:101CF000ABF1010B0BEA030B4AEA0B042146404609
:101D000002F094F8BDE8F09F00BF00F00702064B18
:101D100019684FF6FF031940044B0B4343EA0221B5
:101D2000014B196000BF70470CED00E00000FA05A0
:101D300070B504460D460CB9012070BD58480068C6
:101D400000F00F00A84209D255490D7008460068FE
:101D500000F00F00A84201D00120EEE7207800F04B
:101D6000020002281DD1207800F00400042805D1CB
:101D70004C48006840F4E0504A490860207800F080
:101D80000800082805D14748006840F460404549EC
:101D900008604448006820F0F000A1680843414909
:101DA0000860207800F00100A8B36068012807D11E
:101DB0003C4808380068C0F34040B8B90120BCE78F
:101DC0006068022802D06068032807D135480838C7
:101DD0000068C0F3406048B90120AEE731480838D8
:101DE0000068C0F3400008B90120A6E72D4800684C
:101DF00020F00300616808432A490860FFF742FDAC
:101E0000064609E0FFF73EFD801B41F2883188421B
:101E100002D9032091E707E02248006800F00C0097
:101E20006168B0EB810FEDD11D48006800F00F0034
:101E3000A84209D91A490D700846006800F00F0041
:101E4000A84201D0012078E7207800F0040004289F
:101E500007D11448006820F4E050E16808431149B4
:101E60000860207800F00800082808D10D480068B4
:101E700020F46040216940EAC1000A49086000F08E
:101E80003FF808490968C1F30311074A515CC8408B
:101E90000649086006480068FFF79EFE00204CE7F0
:101EA000003C024008380240DA7700084001002078
:101EB0003801002001480068704700004001002000
:101EC00000B5FFF7F7FF04490968C1F38221034A0F
:101ED000515CC84000BD000008380240EA770008A5
:101EE00000B5FFF7E7FF04490968C1F34231034A2F
:101EF000515CC84000BD000008380240EA77000885
:101F00002DE9F047002400250026A1462548006859
:101F100000F00C0020B1042805D008283AD105E0D3
:101F2000DFF8849039E0DFF8849036E01D48001F28
:101F3000006800F03F041B48001F006800F48000A8
:101F400078B11A481749091F0968C1F38811A0FB25
:101F500001700146224600233846FEF7A7F90546E0
:101F60000EE011480F49091F0968C1F38811A0FB51
:101F700001700146224600233846FEF797F90546D0
:101F80000848001F0068C0F30140401C4600B5FB34
:101F9000F6F902E0DFF8109000BF00BF4846BDE848
:101FA000F0870000083802400024F400001BB7004E
:101FB000F8B504460CB90120F8BD207800F0010006
:101FC000002874D0F948006800F00C0004280DD0F7
:101FD000F648006800F00C00082813D1F348001FF1
:101FE000006800F48000B0F5800F0BD1EF4808388E
:101FF0000068C0F34040002859D06068002856D1DE
:102000000120D9E700BF6068B0F5803F08D1E748FC
:102010000838006840F48030E449083908601EE060
:102020006068B0F5A02F0DD1E0480838006840F492
:102030008020DE49083908600846006840F4803096
:1020400008600CE0D9480838006820F48030D7498F
:10205000083908600846006820F48020086000BF46
:10206000606890B1FFF70EFC054606E0FFF70AFC3A
:10207000401B642801D903209EE7CC48083800683B
:10208000C0F340400028F1D011E0FFF7FBFB05460C
:1020900006E0FFF7F7FB401B642801D903208BE71C
:1020A000C24808380068C0F340400028F1D12078C9
:1020B00000F0020002285FD1BC48006800F00C006C
:1020C00058B1BA48006800F00C0008281CD1B74885
:1020D000001F006800F48000B0B9B44808380068F8
:1020E000C0F3400020B1E068012801D0012063E77F
:1020F000AE480838006820F0F800216940EAC100C5
:10210000AA490839086037E0E06800B30120A8490F
:102110000860FFF7B7FB054606E0FFF7B3FB401B7F
:10212000022801D9032047E7A04808380068C0F317
:1021300040000028F1D09D480838006820F0F800E1
:10214000216940EAC10099490839086014E000207B
:1021500097490860FFF796FB054606E0FFF792FBFC
:10216000401B022801D9032026E790480838006860
:10217000C0F340000028F1D1207800F008000828C2
:102180002CD16069A8B101208A490860FFF77AFB69
:10219000054606E0FFF776FB401B022801D9032025
:1021A0000AE782486C300068C0F340000028F1D094
:1021B00014E000207F490860FFF764FB054606E055
:1021C000FFF760FB401B022801D90320F4E67748A3
:1021D0006C300068C0F340000028F1D1207800F096
:1021E0000400042870D1002770483830006800F0DF
:1021F000805090B900BF002000906C4838300068D3
:1022000040F080506949383108600846006800F0A5
:102210008050009000BF00BF01276748006800F4AD
:102220008070B0B96448006840F48070624908600A
:10223000FFF728FB054606E0FFF724FB401B0228BA
:1022400001D90320B8E65C48006800F480700028DB
:10225000F2D000BFA068012808D154486830006857
:1022600040F001005149683108601DE0A068052870
:102270000DD14E486830006840F004004B49683189
:1022800008600846006840F0010008600CE047481C
:102290006830006820F00100444968310860084651
:1022A000006820F00400086000BFA068A8B1FFF734
:1022B000E9FA054609E0FFF7E5FA401B41F28831EB
:1022C000884202D9032077E626E038486830006863
:1022D000C0F340000028EED013E0FFF7D3FA054624
:1022E00008E0FFF7CFFA401B41F28831884201D95C
:1022F000032061E62D4868300068C0F340000028E4
:10230000EFD1012F07D129483830006820F08050E4
:1023100026493831086000BFA069002845D023480D
:10232000006800F00C0008285DD0A069022845D1A3
:1023300000201F490866FFF7A5FA054606E0FFF7EB
:10234000A1FA401B022801D9032035E617480838B6
:102350000068C0F340600028F1D1D4E907010843C8
:10236000616A40EA81110122A06AC2EB500041EA91
:1023700000412C20005D41EA00600C49091F086003
:1023800001200B490866FFF77DFA054606E0FFF7D6
:1023900079FA401B022801D903200DE603480838CA
:1023A0000068C0F340600028F1D049E008380240DE
:1023B00000004742800E4742007000400020214943
:1023C0000866FFF75FFA054606E0FFF75BFA401B79
:1023D000022801D90320EFE51B480068C0F34060E4
:1023E0000028F2D12CE0A069012800D1E4E51648CC
:1023F000001D0668A069012820D006F48001E0696C
:1024000081421BD106F03F01206A814216D147F676
:10241000C0703040616AB0EB811F0FD106F44031CB
:102420000122A06AC2EB5000B1EB004F06D106F0CA
:1024300070612C20005DB1EB006F01D00120BBE585
:102440000020B9E5000047420038024070B504465C
:102450002546681EB0F1807F01D301200FE0681E81
:102460004FF0E02148610F214FF0FF3001F0DEFC1A
:1024700000204FF0E021886107200861002070BD36
:10248000704770472DE9F84F0446206805682068BA
:10249000C668206847694FF00009CA4605F00F0971
:1024A000B9F1000F0AD105F0200038B106F0200084
:1024B00020B1204601F090F9BDE8F88FB9F1000F86
:1024C0007CD007F0010018B906F49070002875D090
:1024D00005F0010030B106F4807018B1206C40F0B6
:1024E0000100206405F0040030B107F0010018B1CC
:1024F000206C40F00200206405F0020030B107F0CB
:10250000010018B1206C40F00400206405F00800C0
:1025100048B106F0200010B907F0010018B1206C96
:1025200040F008002064206C002846D005F0200010
:1025300028B106F0200010B1204601F04DF92068C6
:102540004069C0F3801A206C00F0080010B9BAF19D
:10255000000F2DD0204601F0E6F82068406900F019
:102560004000402820D100BF00BF2168143151E84D
:10257000001F21F040002168143141E80002002AC8
:10258000F3D100BFA06B50B17548A16B0865A06B7B
:10259000FEF767FE88B1A06B016D88470DE020460D
:1025A000FFF76FFF09E009E02046FFF76AFF04E04C
:1025B0002046FFF766FF002020647DE7206B01289E
:1025C00076D105F01000002872D006F01000002827
:1025D000FAD000BF002000902068006800902068BA
:1025E0004068009000BF00BF2068406900F04000D4
:1025F00040285ED1A06B006840681FFA80F8B8F1EF
:10260000000F54D0A08D404551DDA4F82E80A06B62
:10261000C069B0F5807F43D000BF00BF21680C3196
:1026200051E8001F21F4807021680C3141E800025C
:10263000002AF3D100BF00BF00BF2168143151E868
:10264000001F21F001002168143141E80002002A36
:10265000F3D100BF00BF00BF2168143151E8001F53
:1026600021F040002168143141E80002002AF3D132
:1026700000BF202084F83E000020206300BF00BF80
:1026800021680C3151E8001F21F0100021680C3145
:1026900041E80002002AF3D100BFA06BFEF78BFDDA
:1026A000A08DE28D801A81B22046FFF7E9FE03E794
:1026B00040E0A08DE18D401A1FFA80F8E08DC0B394
:1026C000B8F1000F35D000BF00BF21680C3151E8D0
:1026D000001F21F4907021680C3141E80002002AAB
:1026E000F3D100BF00BF00BF2168143151E8001FC3
:1026F00021F001002168143141E80002002AF3D1E1
:1027000000BF202084F83E000020206300BF00BFEF
:1027100021680C3151E8001F21F0100021680C31B4
:1027200041E80002002AF3D100BF41462046FFF7EE
:10273000A7FEC1E605F0800030B106F0800018B1B8
:10274000204601F043FAB7E605F0400030B106F04C
:10275000400018B1204601F01CF8ADE600BFABE622
:102760008D35000810B504460CB9012010BDA069D4
:1027700000B100E000BF94F83D0028B9002084F8C3
:102780003C00204600F028F8242084F83D00206812
:10279000C06820F400502168C860204601F098F815
:1027A0002068006920F49040216808612068406931
:1027B00020F02A00216848612068C06840F4005079
:1027C0002168C86000202064202084F83D0084F83F
:1027D0003E000020CAE7000010B586B00446142170
:1027E00001A8FDF7DAFDB9492068884274D100BF1D
:1027F00000200090B648006840F00040B4490860EE
:102800000846006800F00040009000BF00BF00BF15
:1028100000200090AE481038006840F01000AC492D
:10282000103908600846006800F01000009000BFF2
:1028300000BF03200190022002900020039003209B
:1028400004900820059001A9A248FEF713FFA248B2
:10285000A2490860000548600021A0488160C1606D
:102860004FF480610161002141618161C1610162B8
:102870004162FEF72BFE08B1FDF7D2FE00BF97487C
:10288000A063846300BF94489038954908604FF076
:10289000206048604021924881600021C1604FF46F
:1028A00080610161002141618161C1610162416218
:1028B000FEF70CFE08B1FDF7B3FE00BF8848606369
:1028C000846300BF002211465320FFF7DFF9532035
:1028D000FFF7CCF9F7E0FFE782492068884277D11B
:1028E00000BF002000907A48001D006840F01000F2
:1028F0007749091D08600846006800F01000009044
:1029000000BF00BF00BF0020009071481038006871
:1029100040F002006E49103908600846006800F077
:102920000200009000BF00BFC02001900220029072
:1029300000200390032004900720059001A96A4815
:10294000FEF798FE69486A4908604FF000604860E9
:10295000002167488160C1604FF4806101610021FE
:1029600041618161C16101624162FEF7AFFD08B161
:10297000FDF756FE00BF5E48A063846300BF5B485E
:1029800078305C4908604FF0006048604021594849
:1029900081600021C1604FF48061016100214161CB
:1029A0008161C16101624162FEF790FD08B1FDF7EE
:1029B00037FE00BF4F486063846300BF00221146AA
:1029C0002520FFF763F92520FFF750F97BE0FFE7AB
:1029D00049492068884276D100BF002000903C48D9
:1029E000001D006840F020003949091D08600846B4
:1029F000006800F02000009000BF00BF00BF002072
:102A0000009033481038006840F0400030491039D9
:102A100008600846006800F04000009000BF00BF5A
:102A20004FF4844001900220029000200390032084
:102A300004900820059001A93048FEF71BFE2B48A2
:102A400018382F4908608005486000212C488160B3
:102A5000C1604FF480610161002141618161C16108
:102A600001624162FEF732FD08B1FDF7D9FD00BFFA
:102A70002348A063846300BF1C486030214908607C
:102A80004FF02060486040211E4881600021C160F5
:102A90004FF480610161002141618161C161016286
:102AA0004162FEF713FD08B1FDF7BAFD00BF1548FE
:102AB0006063846300BF002211464720FFF7E6F8F9
:102AC0004720FFF7D3F806B010BD0000007C00409F
:102AD0004038024000100240A0600240A0050020E3
:102AE0000006002000100140000402404064024043
:102AF00060060020C00600200014014000180240BB
:102B0000200700208007002070B504460D461646B9
:102B100094F83E00202816D105B10EB9012070BDF1
:102B200000BF94F83C00012801D10220F7E7012002
:102B300084F83C0000BF002020633246294620462E
:102B400000F0DCFFEBE70220E9E7000010B50446E7
:102B50000B222749274803F034FF0A21254802F0B9
:102B600067FB254908602348806A0968884203D1C9
:102B700001202249087002E00020204908702C2220
:102B80001B491F48FFF7C0FF1E48C06890ED002A90
:102B9000F0EE421A1B48806890ED002AB0EE421A0F
:102BA0001848406890ED002AF0EE420A1548006887
:102BB00090ED002AB0EE420A03F088FD124880ED45
:102BC000000AC0ED010A80ED021A90ED010A0F48DB
:102BD00080ED000A0C4890ED000A0C4880ED010AD7
:102BE000094890ED020A094880ED020A10BD000074
:102BF000940200204C03002000010020A0000020CF
:102C00005C05002004030020EC0200203C030020AF
:102C100070470000F7B50446154694F83D0020289B
:102C200046D1019800B10DB90120FEBD00BF94F856
:102C30003C00012801D10220F7E7012084F83C0084
:102C400000BF01982062A584E58400202064212033
:102C500084F83D001748616BC8631748616B0864CE
:102C60001648616BC8640020616B086501AE23687B
:102C70001A1D31682B46606BFEF79EFC6FF040001A
:102C80002168086000BF002084F83C0000BF00BF3E
:102C900000BF2168143151E8001F41F08000216815
:102CA000143141E80002002AF3D100BF0020BCE744
:102CB0000220BAE7C136000819370008A13500081C
:102CC00010B504460D48844216D10D48007840B135
:102CD00000200B49087004220A490848FFF79AFFB0
:102CE0000AE00748007838B9102207490348FFF77F
:102CF00091FF01200249087010BD0000D40400209B
:102D0000A9000020040100203C030020704700BF00
:102D1000FEE7000010B52DED048B11E019480068A6
:102D200004F0DCFC41EC190B9FED170B53EC102B5E
:102D300003F0A0FE41EC180B03F06AFE1149086095
:102D40001348406890ED000A10EE101A084604F08F
:102D5000C5FC41EC190BB0EE490AF0EE690A01F02E
:102D600087FDB0EE408AF0EE608A9FED0A0B53ECCF
:102D7000102B51EC180B04F07FF9CFD3BDEC048B72
:102D800010BD00007C00002082764968C2253C3DD1
:102D900004030020FCA9F1D24D62503F00B58BB076
:102DA0002048214908600320486000211E488160B6
:102DB000C1604FF4002101614FF4401141610021D5
:102DC000017641768176C17601774177FEF71BF86F
:102DD00008B1FDF725FC0120069000200790012096
:102DE00008900020019002900390049005900E201E
:102DF0000A900120099001A90B48FDF78DFD08B14B
:102E0000FDF70EFC0848FEF7A0F908B1FDF708FC35
:102E100002210548FDF7C0FC08B1FDF701FC0BB02D
:102E200000BD0000006400403004002000B58BB0FD
:102E30001F48204908600320486000211D48816028
:102E4000C1604FF4002101614FF440114161002144
:102E5000017641768176C17601774177FDF7D3FF20
:102E600008B1FDF7DDFB0E20069000200790012041
:102E7000089000200190029003900490012005909A
:102E8000099001A90B48FDF747FD08B1FDF7C8FB04
:102E90000848FEF75AF908B1FDF7C2FB10210548B2
:102EA000FDF77AFC08B1FDF7BBFB0BB000BD0000DD
:102EB000006800405804002008B500BF00200090C2
:102EC0002648006840F480002449086008460068ED
:102ED00000F48000009000BF00BF00BF0020009001
:102EE0000846006840F4001008600846006800F4D6
:102EF0000010009000BF00BF002211460B20FEF71B
:102F0000C5FE0B20FEF7B2FE002211461120FEF78F
:102F1000BDFE1120FEF7AAFE002211463920FEF761
:102F2000B5FE3920FEF7A2FE002211463A20FEF738
:102F3000ADFE3A20FEF79AFE002211464520FEF72C
:102F4000A5FE4520FEF792FE002211464620FEF720
:102F50009DFE4620FEF78AFE08BD00003038024084
:102F600008B500BF002000902C48006840F0100019
:102F70002A4908600846006800F01000009000BF71
:102F800000BF00BF002000900846006840F002002B
:102F900008600846006800F00200009000BF00BF13
:102FA00000BF002000900846006840F04000086024
:102FB0000846006800F04000009000BF00BF00BF5E
:102FC000002000900846006840F0010008600846B4
:102FD000006800F00100009000BF00BF00BF0020AB
:102FE00000900846006840F0080008600846006845
:102FF00000F00800009000BF00BF00BF002000905C
:103000000846006840F0800008600846006800F04C
:103010008000009000BF00BF08BD000030380240B3
:1030200010B5124812490860124848600021104843
:103030008160C1604FF48041016100214161816183
:10304000C1610162FEF772FC08B1FDF7E9FA0021E7
:103050000748FEF71DFC08B1FDF7E2FA002104481D
:10306000FEF73CFC08B1FDF7DBFA10BD0054004050
:1030700080040020801A060010B50C480C49086036
:103080004FF4E1304860002109488160C16001616E
:103090000C214161002181614FF40041C161FFF7C2
:1030A00061FB08B1FDF7BCFA10BD0000007C0040D8
:1030B000D404002010B50B480B4908600B48486049
:1030C000002109488160C1604FF4806101610C21D9
:1030D000416100218161C161FFF744FB08B1FDF747
:1030E0009FFA10BD0010014018050020A0860100C5
:1030F00010B50C480C4908604FF4E13048600021DD
:1031000009488160C16001610C2141610021816138
:103110004FF40041C161FFF725FB08B1FDF780FACC
:1031200010BD0000001401405C05002000BFFEE758
:1031300070B50446002505E000222846691C8DB2C2
:1031400039490A54082DF7DB002035E004EB8001F3
:1031500091ED000AB5EEC00AF1EE10FA19D204EBB7
:10316000800191ED000A3149D1ED000A60EE200A9C
:103170002F4991ED001A80EE810A2C49D1ED000A09
:10318000B0EE001A01EE200A04EB800181ED000A86
:1031900011E004EB800191ED000A2449D1ED000A11
:1031A00020EE200A2249D1ED000A80EE201A04EB1D
:1031B000800181ED001A401C0328C7DB94ED000A52
:1031C000BCEEC00A10EE100A000A1749087094ED10
:1031D000000ABCEEC00A10EE100A487094ED010A15
:1031E000BCEEC00A10EE100A000A887094ED010AC5
:1031F000BCEEC00A10EE100AC87094ED020ABCEED4
:10320000C00A10EE100A000A087194ED020ABCEE22
:10321000C00A10EE100A487140F2FF10054908601C
:1032200000F09EFD70BD0000080100206C01002030
:1032300078010020C803002070B50446002505E091
:1032400000222846691C8DB239490A54082DF7DB43
:10325000002035E004EB800191ED000AB5EEC00AD4
:10326000F1EE10FA19D204EB800191ED000A314918
:10327000D1ED000A60EE200A2F4991ED001A80EE90
:10328000810A2C49D1ED000AB0EE001A01EE200AA5
:1032900004EB800181ED000A11E004EB800191ED67
:1032A000000A2449D1ED000A20EE200A2249D1ED7E
:1032B000000A80EE201A04EB800181ED001A401C08
:1032C0000328C7DB94ED000ABCEEC00A10EE100A1A
:1032D000000A1749087094ED000ABCEEC00A10EE0F
:1032E000100A487094ED010ABCEEC00A10EE100AF4
:1032F000000A887094ED010ABCEEC00A10EE100AB4
:10330000C87094ED020ABCEEC00A10EE100A000A62
:10331000087194ED020ABCEEC00A10EE100A487162
:1033200040F2FF100549086000F032FD70BD00005A
:103330001C0100206C01002078010020FC0300200B
:1033400070B506460C4615460548067044708570F3
:1033500040F2FF300349086000F002FD70BD00003C
:1033600008010020C803002070B506460C4615462B
:10337000054806704470857040F2FF3003490860CC
:1033800000F006FD70BD00001C010020FC030020C1
:1033900000BFFEE7F0EE401A9FED172AB0EE420A9A
:1033A000164890ED002AB4EEC20AF1EE10FA04DDE0
:1033B00090ED002AB0EE420A0FE0104890ED002A8E
:1033C000B1EE422AB4EEC20AF1EE10FA05D290ED47
:1033D000002AB1EE422AB0EE420A31EEE02A084855
:1033E000D0ED002A22EE222A0648D0ED002A02EE75
:1033F000812AB0EE420A7047000000007C010020E4
:1034000054010020580100207047000010B5234BE4
:103410001B685B6943F04003204C246863611F4BC9
:103420001B68DB6843F010031C4C2468E3601C4BF2
:103430001B681B6823F00103194C2468236007E014
:10344000174B1B681B6823F00103154C246823608D
:10345000134B1B681B6803F00103002BF0D1114BC9
:103460000F4C2468A3600E4B1B68D8600C4B1B6884
:1034700019610B4B1B685A60094B1B681B6843F4AE
:103480008023074C24682360054B1B681B6843F0AE
:103490000103034C2468236010BD000018050020C0
:1034A0006006002004100140704710B5FEF76AFB6B
:1034B00010BD000000B593B0302107A8FCF76DFFE8
:1034C000142102A8FCF769FF00BF002001902448E6
:1034D000006840F08050224908600846006800F00B
:1034E0008050019000BF00BF00BF002001901D4828
:1034F000006840F440401B4908600846006800F43A
:103500004040019000BF00BF0120079000040890D8
:1035100002200D9041050E9106210F91A8211091D6
:10352000022111910421129107A8FEF741FD08B173
:10353000FDF776F80F2002900220039000200490FF
:103540004FF4A05005904FF480500690052102A83A
:10355000FEF7EEFB08B1FDF763F813B000BD000005
:1035600040380240007000400348006840F470009A
:10357000014908607047000088ED00E010B502487E
:10358000FEF780FF10BD0000D404002070B5054692
:10359000AC6B0020E085E0842046FEF772FF70BD32
:1035A00070B506460025B46B20684069C0F3C015AD
:1035B00094F83D00212805D125B10020E084204663
:1035C00000F0F7F820684069C0F3801594F83E00D9
:1035D000222805D125B10020E085204600F0A3F87F
:1035E000206C40F0100020642046FEF74AFF70BDBA
:1035F00070B50546AC6B2868006800F48070002840
:1036000042D1E08500BF00BF21680C3151E8001FA6
:1036100021F4807021680C3141E80002002AF3D1C6
:1036200000BF00BF00BF2168143151E8001F21F026
:1036300001002168143141E80002002AF3D100BFE3
:1036400000BF00BF2168143151E8001F21F0400085
:103650002168143141E80002002AF3D100BF202084
:1036600084F83E00206B01280ED100BF00BF216806
:103670000C3151E8001F21F0100021680C3141E8A5
:103680000002002AF3D100BF206B012804D1A18DD4
:103690002046FEF7F5FE02E02046FFF757FA70BD20
:1036A00070B50546AC6B206B012805D1A08D410893
:1036B0002046FEF7E5FE02E02046FFF7A9FA70BDBE
:1036C00070B50546AC6B2868006800F48070F8B9E6
:1036D0000020E08400BF00BF2168143151E8001FC2
:1036E00021F080002168143141E80002002AF3D162
:1036F00000BF00BF00BF21680C3151E8001F41F03E
:10370000400021680C3141E80002002AF3D102E0B8
:103710002046FFF7D5FA70BD70B50446A56B284664
:10372000FFF7F4FA70BD00BF00BF02680C3252E828
:10373000002F22F4907102680C3242E80013002B33
:10374000F3D100BF00BF00BF0268143252E8002F5F
:1037500022F001010268143242E80013002BF3D179
:1037600000BF016B01290ED100BF00BF02680C32FF
:1037700052E8002F22F0100102680C3242E80013D8
:10378000002BF3D100BF202180F83E1000210163FF
:10379000704710B504462068C06820F040002168DA
:1037A000C860202084F83D002046FFF789FA0020F9
:1037B00010BD00BF00BF02680C3252E8002F22F09B
:1037C000C00102680C3242E80013002BF3D100BFA5
:1037D000202180F83D107047F8B5044694F83E006B
:1037E000222873D1A068B0F5805F0CD1206950B950
:1037F0000025A66A20684068C0F308003080A06AEF
:10380000801CA06215E0A56A0026A068B0F5805F64
:1038100003D0A06828B9206918B9206840682870CA
:1038200004E02068406800F07F002870A06A401C17
:10383000A062E08D401E80B2E085002844D120685F
:10384000C06820F020002168C8602068C06820F4AB
:1038500080702168C8602068406920F001002168FC
:103860004861202084F83E00206B012826D10020EA
:10387000206300BF00BF21680C3151E8001F21F018
:10388000100021680C3141E80002002AF3D100BF8A
:103890002068006800F0100010280AD100BF002046
:1038A000009020680068009020684068009000BF89
:1038B00000BFA18D2046FEF7E3FD02E02046FFF7A2
:1038C00045F90020F8BD01E00020FBE70220F9E700
:1038D0002DE9F84F04462068006920F44050E16863
:1038E0000843216808612169A068084361690843A9
:1038F000E169084300902068C06849F20C61884380
:10390000009908432168C8602068406920F440702D
:10391000A16908432168486176492068884203D03C
:1039200075492068884203D1FEF7DAFA814602E041
:10393000FEF7C6FA8146E069B0F5004F6CD102206F
:103940006168A0FB015003461920A9FB00700146E5
:103950002A463846FCF7AAFC6421B0FBF1F04FEA96
:10396000001A02206168A0FB01510B461920A9FB37
:1039700000712A463846FCF799FC834602206168AC
:10398000A0FB015003461920A9FB00712A463846C6
:10399000FCF78CFC6421B0FBF1F000EBC00101EB03
:1039A0000010ABEB8000322101EBC0006421B0FBC2
:1039B000F1F000F0F8000AEB400A02206168A0FB79
:1039C000015003461920A9FB007001462A463846DB
:1039D000FCF76CFC834602206168A0FB01500346A3
:1039E0001920A9FB00712A463846FCF75FFC6421C8
:1039F000B0FBF1F000EBC00101EB0010ABEB80007D
:103A0000322101EBC0006421B0FBF1F000F00700AF
:103A10005044216888606AE004206168A0FB01507E
:103A200003461920A9FB007001462A463846FCF7D8
:103A30003DFC824604206168A0FB0150034619202A
:103A4000A9FB007001462A463846FCF72FFC64218A
:103A5000B0FBF1F000EBC00101EB0010AAEB80001D
:103A6000322101EB00106421B0FBF1F000F0F00A0C
:103A700004206168A0FB017003461920A9FB0051D6
:103A80003A462846FCF712FC6421B0FBF1F00AEB41
:103A9000001A04206168A0FB01510B461920A9FB04
:103AA00000712A463846FCF701FC83460420616811
:103AB000A0FB015003461920A9FB007001462A46CD
:103AC0003846FCF7F3FB6421B0FBF1F000EBC001DA
:103AD00001EB0010ABEB8000322101EB0010642100
:103AE000B0FBF1F000F00F00504421688860BDE8A1
:103AF000F88F0000001001400014014077B581B03C
:103B0000044615460298A062A58500202064222064
:103B100084F83E002A48A16BC8632A48A16B086458
:103B20002948A16BC8640020A16B086502AE326809
:103B30002368191D2B46A06BFDF73EFD00BF00203A
:103B4000009020680068009020684068009000BFE6
:103B500000BF00BF002084F83C0000BF206970B1A6
:103B600000BF00BF21680C3151E8001F41F4807094
:103B700021680C3141E80002002AF3D100BF00BFE8
:103B800000BF2168143151E8001F41F00100216895
:103B9000143141E80002002AF3D100BF00BF00BF8A
:103BA0002168143151E8001F41F0400021681431B0
:103BB00041E80002002AF3D100BF002004B070BD2C
:103BC000F1350008A1360008A1350008014691F83A
:103BD0003D00212828D18868B0F5805F0BD10869A5
:103BE00048B90A6A1088C0F308000B685860086A70
:103BF000801C086205E00B6A581C086218780B6884
:103C00005860C88C401E80B2C88458B90868C06823
:103C100020F080000B68D8600868C06840F0400061
:103C20000B68D860002070470220FCE708B54148C7
:103C30000068006800F0200060B100BF0020009024
:103C40003C480068006800903A480068406800906E
:103C500000BF6EE03848006800F01000002868D00F
:103C600000BF002000903348006800680090314891
:103C700000684068009000BF00BF304800680068DE
:103C800000F4002058BB2D480068006820F00100B7
:103C90002A4909680860294800684068C0F1240082
:103CA000274908802420254909684860234800687E
:103CB000006840F400202149096808601F48006836
:103CC000006840F001001D49096808601C48008830
:103CD00012282ED11B491C4802F0B4FD29E01748D8
:103CE0000068006820F00100144909680860134862
:103CF00000684068C0F124001149088024200F4961
:103D0000096848601148006820F400200F490860E5
:103D10000A480068006840F0010008490968086026
:103D200007480088122804D106490748243002F0C9
:103D300089FD08BD18050020001001406006002024
:103D400080010020EC0700200208002040640240AF
:103D500010B50248FEF796FB10BD00005C05002080
:103D600010B500200649C86088600820086100205E
:103D70000875044B044A0548FCF723FD10BD0000FC
:103D8000C803002018010020080100203004002092
:103D900010B500200649C86088600820086100202E
:103DA0000875044B044A0548FCF70BFD10BD0000E4
:103DB000FC0300202C0100201C01002058040020DE
:103DC00000BFFEE703B401984100009850EAC1200B
:103DD00018BF04204A0D18BF40F0010040F2FF72E6
:103DE000B2EB515F08BF40F00200012808BF052078
:103DF00002B070474100080218BF04200A0E18BF25
:103E000040F001004FF07F4232EA010108BF40F06C
:103E10000200012808BF0520704700000248006822
:103E2000C0F30220704700000CED00E010B5002840
:103E300004DB0A07130E054A135406E00A07140EA2
:103E4000034A00F00F031B1FD45410BD00E400E030
:103E500018ED00E00000000010B5B94A2DED020B8E
:103E60002DED0C8B82B00F9921F000409FEDB6CB69
:103E700090422CDBA0F140530E9AA3F17F631A43CA
:103E80000FD0B349884202DC16D10E98A0B19DED47
:103E90000E0B02B0BDEC0C8B02B0BDE8104001F07F
:103EA00077B90029C1BF9FEDAC0B02B0BDEC0C8B04
:103EB00002B0C8BF10BD16E00120FCF79DFA02B0A9
:103EC000BDEC0C8B02B0BDE8104001F075B9A44AFE
:103ED0009FEDA59B9FEDA6AB90425EDAA6499FEDB4
:103EE000A8CB814208DBB0EE4C0AF0EE6C0A02B0BF
:103EF000BDEC0C8B02B010BD9DED0E0B53EC102BE6
:103F000051EC100B03F0F4F841EC180B9E4806211D
:103F1000B0EE480AF0EE680A784401F025F853EC58
:103F2000182B51EC100B03F0E3F841EC1B0B9748F6
:103F3000B0EE480AF0EE680A0421784401F014F863
:103F400053EC182B51EC100B03F0D2F853EC192B57
:103F500002F090FD41EC100B51EC1B0B53EC102BBD
:103F600002F0D8FE41EC100B53EC102B9DED0E0B24
:103F700051EC100B03F0BCF853EC1A2B03F0ECF9E6
:103F80009DED0E1B53EC112B03F0E6F953EC1C2BAB
:103F900003F0E2F941EC100BA9E79FED7D8B9FED5B
:103FA0007EBB9DED0E0B002953EC192B51EC100B31
:103FB00052DA02F05FFD53EC182B03F099F841EC54
:103FC000180B77480621B0EE480AF0EE680A7844EC
:103FD00000F0CAFF53EC182B51EC100B03F088F8DB
:103FE00041EC1D0B6F48B0EE480AF0EE680A042160
:103FF000784400F0B9FF53EC182B51EC100B03F090
:1040000077F853EC192B02F035FD41EC190B51EC0C
:10401000180B02F080FC41EC180B53EC192B51ECFF
:104020001D0B02F077FE53EC182B03F061F853ECF4
:104030001A2B03F069FA41EC100B51EC180B53ECFE
:10404000102B02F017FD53EC1B2B03F051F853EC2F
:104050001C2B03F081F96DE003F07EF953EC182B73
:1040600003F046F841EC180B02F055FC41EC1A0B3A
:1040700000208DED00AB00909DED000B51EC1A0B74
:1040800053EC102B02F0F6FC9DED000B41EC1C0BE9
:1040900053EC102B51EC100B03F02AF853EC182BB7
:1040A00003F05AF953EC1C2B02F034FE41EC1C0BCC
:1040B0003D48B0EE480AF0EE680A0621784400F068
:1040C00053FF53EC182B51EC100B03F011F841EC9B
:1040D0001D0B3648B0EE480AF0EE680A0421784419
:1040E00000F042FF53EC182B51EC100B03F000F8DA
:1040F00053EC192B02F0BEFC41EC100B51EC1D0BE4
:1041000053EC102B02F006FE53EC1A2B02F0F0FFDA
:1041100053EC1C2B02F0AEFC41EC100B53EC102BBB
:104120009DED000B51EC100B02F0A4FC53EC1B2B8B
:1041300002F0DEFF41EC100BD9E6000000000000A9
:104140000000F03F00000000182D4454FB210940FE
:104150000000F07F000000000000000000000000F0
:104160000000E03F00000000000000000000F03F01
:10417000075C143326A6913C0000603C0000000060
:10418000182D4454FB21F93FDC380000EA380000C8
:10419000000000000000E03F0000000000000040C0
:1041A0002638000034380000383700004637000059
:1041B00010B54FF00E402DED028BB0EE408A18EE98
:1041C000104A00EB4400B0F1506F4AD84FF0FC4069
:1041D000B0EB440F22D2B0EEC80AF7EE000A30EE80
:1041E000C00AF6EE000A60EE208A18EE900A02F08D
:1041F000C9FB01EE100A14F0004F1DBFDFED2D0AC0
:104200009FED2D0AB1EE411ADFED2C0A08BF9FED9C
:104210002C0AF8EE001A21EE218A05E0DFED290ACA
:1042200068EE088AB0EE600A9FED271ADFED271AC4
:1042300030EE080A48EE811A9FED251A08EEA11A01
:10424000DFED241A48EE811A9FED231A08EEA11A19
:1042500068EE281ABDEC028B01EE810A30EE200ACE
:1042600010BD4FF0E440B0EB440F0CD918EE100A2B
:10427000FFF7C0FD042808BF00F0CAFFB0EE480AEF
:10428000BDEC028B10BD4FF07F40B0EB440F07D266
:10429000B0EE480ABDEC028BBDE8104000F0ACBFA8
:1042A0000120FCF7A9F8BDEC028BBDE8104000F03E
:1042B000A7BF00000000C9BF22AAFDB90000C93F86
:1042C00022AAFD390000000024FE1C3DC78AD83C0C
:1042D0001E67383D1B93993DAFAA2A3E000000009F
:1042E00070B59B482DED020B2DED068B079D25F03B
:1042F0000044A04218DC9748844202DC0AD10698A8
:1043000040B19DED060BBDEC068B02B0BDE87040E0
:1043100000F03EBF002DCCBF9FED8F0B9FED900BAB
:10432000BDEC068B02B070BD8F48A04215DD8F48F2
:10433000A042D8BF4FF0FF3458DD9DED060B51EC85
:10434000100BFFF73FFD042808BF00F045FF9DED6F
:10435000060BBDEC068B02B070BD9DED060B51EC5B
:10436000100B01F073F8CDE9060181489FED828BB7
:10437000A0423CDD8248A0421FDD00249FED82ABBD
:104380009DED060B53EC1A2B51EC100B02F072FB57
:104390009DED060B41EC190B53EC1A2B51EC100B55
:1043A00002F0A6FE53EC182B03F0AEF853EC192BD9
:1043B00002F0B0FCCDE9060149E09DED060B0124B9
:1043C00053EC182B51EC100B02F054FB9DED060B37
:1043D00041EC190B53EC182B51EC100B03F094F833
:1043E00053EC192B02F096FCCDE906012FE068484A
:1043F000A0421FDD02249FED689B9DED060B53EC50
:10440000192B51EC100B02F073FE53EC182B02F039
:1044100031FB9DED060B41EC180B53EC192B51ECC5
:10442000100B03F071F853EC182B02F073FCCDE97C
:1044300006010CE09DED060B032453EC102B9FEDC1
:10444000580B51EC100B02F065FCCDE906019DED17
:10445000060B53EC102B51EC100B02F049FE41EC13
:10446000180B53EC182B02F043FE41EC190B4E488D
:104470000621B0EE490AF0EE690A784400F074FDB6
:1044800053EC182B51EC100B02F032FE41EC180BE0
:104490004648B0EE490AF0EE690A0521784400F07A
:1044A00063FD53EC192B51EC100B02F021FE41EC93
:1044B000100B51EC180B53EC102B002C0EDA02F001
:1044C000D9FA9DED061B53EC112B02F011FE9DED68
:1044D000061B53EC112B02F03FFF35E002F0CAFA45
:1044E0009DED061B53EC112B02F002FE41EC100B6C
:1044F0002F48784400EBC40090ED001B51EC100BEA
:1045000053EC112B03F000F89DED061B53EC112B1F
:1045100002F0FAFF41EC100B2648784400EBC4008F
:1045200090ED001B51EC100B53EC112B02F014FF1B
:1045300041EC100B002DA2BFBDEC068B02B070BD8C
:1045400051EC100B02F058FA41EC100B01E700009F
:10455000000010440000F07F182D4454FB21F93F67
:10456000182D4454FB21F9BF0000DC3F0000203E21
:104570000000F33F00000000000000000000F03FDA
:104580000000E63F000000000000000000000040C6
:104590000080034000000000000000000000F83F21
:1045A000000000000000F0BF32340000E8330000DB
:1045B000723300002A33000070B56B4E2DED040BF2
:1045C0002DED028B82B0DDF81CC0DDE905235C42D5
:1045D0002CF000411C4341EAD474049D22F00040B9
:1045E000B44205D86C422C4340EAD474B4420BD98F
:1045F0009DED061B9DED040B02B0BDEC028B04B0DB
:10460000BDE8704000F0CEBDACF14054A4F17F6431
:104610001C430BD0022404EAAC7444EAD274054370
:104620009FED538B9FED542B07D015E09DED040BB0
:1046300051EC100B00F0F4FD42E0002C11BF012CF6
:104640009DED040B02B0BDEC028B04BF04B070BD45
:10465000022C38D0032C3BD00B439FED491B9FED20
:104660004A0B0AD0B14218D1B04209D121F08041A1
:1046700020F08040079105900FE0002A15DA10E045
:10468000434B7B44002C08BF93ED000B0DD0012C55
:1046900010D0022C17D0032C1AD0B0421DD1002A02
:1046A00003DAB0EE410AF0EE610A02B0BDEC028B13
:1046B00004B070BD93ED000B51EC100B02F09CF9AF
:1046C00041EC100BF1E7B0EE480AF0EE680AECE7B7
:1046D000B0EE420AF0EE620AE7E7401A00153C2805
:1046E000C8BF8DED000B19DCBCF1000FBEBF10F18F
:1046F0003C0F9FED290B8DED000B0FDB9DED060BA5
:1047000053EC102B9DED040B51EC100B02F002FB4F
:1047100000F09CFE00F084FDCDE90001002C08BFF4
:104720009DED000BC1D0012C10D0022C9FED1C0B75
:1047300053EC102B9DED000B51EC100B0DD002F043
:10474000E3FE53EC182B02F0DFFEB9E7019880F08E
:10475000004001909DED000BA7E702F0D5FE53EC61
:10476000182B02F0F9FDABE70000F07F000000001D
:10477000182D4454FB210940182D4454FB2109C035
:10478000182D4454FB21F9BF182D4454FB21F93F47
:104790008A3200000000000000000000000000005D
:1047A000075C143326A6A13C10B52F499FED2C1BA6
:1047B0002DED020B84B0059820F000408842D8BF50
:1047C0009DED040B2DDD2949884209D1049840B99B
:1047D0004FF00100FBF710FE00F0EEFC06B010BD3C
:1047E00005DB9DED040B00F0D3FC06B010BD684660
:1047F0009DED040B00F0E4F810F0030004BF9DED04
:10480000021B9DED000B0CD001280ED09DED021B6C
:104810009DED000B022817D0012000F021FC06B00E
:1048200010BD00F0E9FA06B010BD9DED021B9DED34
:10483000000B012000F014FC51EC100B02F0DCF82E
:1048400006B041EC100B10BD00F0D6FA51EC100B85
:1048500002F0D2F806B041EC100B10BD00000000D1
:104860000000000000000000FB21E93F0000F07F95
:104870002DED020B019820F0004001909DED000B02
:1048800002B0704700B52DED048BB0EE418AF0EE1A
:10489000618AB0EE409AF0EE609A83B053EC182B28
:1048A00051EC190B02F0BFF900F07040B0F1004F6D
:1048B0001AD018EE101A18EE900A8DED008B002910
:1048C00018BF0121084320F00040C0F17F6000F1D3
:1048D000E040C00F01BFB0EE480AF0EE680A03B036
:1048E000BDEC048B08BF00BDB0EE490A03B0F0EE8A
:1048F000690ABDEC048B00BD10B52F499FED2C1B40
:104900002DED020B84B0059820F000408842DCBFFA
:1049100000209DED040B32DD2849884209D104981E
:1049200040B94FF00100FBF767FD00F045FC06B011
:1049300010BD05DB9DED040B00F02AFC06B010BD98
:1049400068469DED040B00F03BF810F0030011D019
:10495000012818D09DED021B9DED000B02281AD0F6
:1049600000F04AFA51EC100B02F046F806B041ECA8
:10497000100B10BD9DED021B9DED000B012000F002
:104980006FFB06B010BD9DED021B9DED000B00F00E
:1049900033FA06B010BD012000F062FB51EC100BA1
:1049A00002F02AF806B041EC100B10BD0000000028
:1049B0000000000000000000FB21E93F0000F07F44
:1049C0002DE9F14F04462DED020B2DED088B8AB039
:1049D0009FEDE70B80ED020B139EE74826F00045A4
:1049E00085420ADC9DED120B002084ED000B0AB01D
:1049F000BDEC088B03B0BDE8F08FE0489FEDE0AB65
:104A00009FEDE1BBA84247DDE14F9FEDE39B9FEDAA
:104A1000E48B9DED120B53EC1A2B51EC100B002E76
:104A20001CDD02F071FD41EC100BBD4208D053ECCF
:104A30001B2B51EC100B02F067FDC4E900010BE0E9
:104A400053EC192B51EC100B02F05EFD53EC182BBC
:104A500002F05AFDC4E900010120C8E702F00AF89B
:104A600041EC100BBD4208D053EC1B2B51EC100B4A
:104A700002F000F8C4E900010BE053EC192B51ECF3
:104A8000100B01F0F7FF53EC182B01F0F3FFC4E912
:104A900000014FF0FF30AAE7C348A84279DB9DED43
:104AA000120B51EC100B00F0D1FC41EC180B9FEDF8
:104AB000C00B53EC102B02F01BFB9FEDBF1B53EC04
:104AC000112B01F0D7FF02F07DFA074602F0A9FA98
:104AD00041EC190B53EC1A2B02F00AFB53EC182B88
:104AE00002F03AFC41EC180B53EC1B2B51EC190B68
:104AF00002F0FEFADFF8C8A241EC100B4FEA15589D
:104B00000125FA4453EC102B51EC180B02F0FCFC7D
:104B1000032DC4E900013DD0C1F30A5005EB451156
:104B2000A8EB00001139814234DA0AEB051BB0EE24
:104B300048AA9BED000BF0EE68AA53EC102B51EC49
:104B4000190B02F0D5FA41EC1B0B51EC1A0B53EC8C
:104B50001B2B02F0D9FC41EC180B51EC1A0B53EC57
:104B6000182B02F0D1FC53EC1B2B02F0CDFC9BED7B
:104B7000020B41EC1A0B53EC102B51EC190B02F009
:104B8000B7FA53EC1A2B02F0BFFC41EC100B6D1C72
:104B9000B8E70EE0002EA8BF3846BFF628AF94ED68
:104BA000000B51EC100B01F027FFC4E90001784223
:104BB0001DE7C6F3130040F4801EC6F30A50A0F2AE
:104BC000F530471100F01F05C5F12000DDF848B0B1
:104BD00008900020069007900520EC467949002DAA
:104BE00007EB0002794408BF51F8221009D051F8B0
:104BF000223001EB8201AB404A68089922FA01F1A8
:104C00001943A1FB0E26A1FB0B131A449A4234BF91
:104C10000123002303EB06080CEB8003D3E901A674
:104C20000E448E4234BF0121002192448A4411B1C6
:104C3000924502D903E0924501D2012100E0002112
:104C4000C3E901A641444CF82010011EA0F1010067
:104C5000C4DC029800F10050850F0298DDE903677B
:104C60008000DDF8148002F0DCF941EC1A0B3046CC
:104C700002F0EEF99FED541B53EC112B02F038FAC1
:104C800041EC1B0B384602F0E3F99FED511B53EC4E
:104C9000112B02F02DFA41EC180B404602F0D8F926
:104CA0009FED4D1B53EC112B02F022FA41EC190B36
:104CB00051EC180B53EC192B01F0DCFE53EC1B2BC1
:104CC00001F0D8FE53EC1A2B01F0D4FECDE9080117
:104CD000002008909DED080B53EC1A2B51EC100BA3
:104CE00002F012FC53EC1B2B02F00EFC53EC182BC1
:104CF00002F00AFC53EC192B02F02EFB9FED381B3F
:104D000053EC112B02F0F4F99FED370B41EC180B2B
:104D100053EC102B9DED080B51EC100B02F0E8F951
:104D200053EC182B01F0A6FE9FED310B41EC180B54
:104D300053EC102B9DED080B51EC100B02F0D8F941
:104D400053EC182B01F096FE41EC100B139810F069
:104D5000004F06D06D4251EC100B01F04DFE41ECBE
:104D6000100B284684ED000B41E600000000000017
:104D70000000000000000000FB21E93F7CD9024058
:104D800000004054FB21F93F3163621A61B4D03D09
:104D9000FB21F93F000000000000601A61B4D03D23
:104DA0007370032E8A19A33BFB21394100000000D8
:104DB00083C8C96D305FE43F000000000000E03FA1
:104DC000122E0000602D0000000000000000103EC8
:104DD000000000000000103C000000000000103A3D
:104DE000182D4454FB21F93D3326A611460B113CE6
:104DF00000000054FB21F93D10B52DED040B2DED05
:104E0000088B82B0B0EE419AF0EE619A0B9820F0D8
:104E100000449FED4BABB4F1795F11DA9DED0A0BC5
:104E200051EC100B02F0CEF8002801BFB0EE4A0A98
:104E3000F0EE6A0A02B0BDEC088B04BF04B010BDEE
:104E40009DED0A0B53EC102B51EC100B02F050F9B6
:104E500041EC180B3C480621B0EE480AF0EE680A17
:104E6000784400F081F853EC182B51EC100B02F051
:104E70003FF99DED0A0B41EC1B0B53EC192B51EC48
:104E8000100B02F035F941EC190B53EC1B2B51ECD4
:104E9000180B02F02DF953EC192B02F035FB9FEDA6
:104EA0002C0B41EC190B53EC102B51EC180B02F0AE
:104EB0001FF941EC100B2848844210DA53EC192BEF
:104EC00051EC100B02F020FB53EC1A2B02F044FAC9
:104ED00041EC100B02B0BDEC088B04B010BD1F48B4
:104EE000A042BCBF9FED1E1B8DED001B06DBA4F591
:104EF00000100190002000909DED001B51EC100B64
:104F000053EC112B02F000FB9DED000B41EC180B54
:104F100053EC102B51EC1A0B02F0F6FA41EC1A0B81
:104F200053EC192B51EC180B02F0EEFA53EC1A2B40
:104F300002F012FA41EC100BCCE700000000000078
:104F4000000000000000F03F7C2A0000000000008C
:104F5000000000000000E03F3333D33F0000E93F92
:104F6000000000000000D23F70B504462DED028B1A
:104F70004D1E00EBC500B0EE408AF0EE608A90ED69
:104F8000000B35F0060017D053EC182B51EC100B2A
:104F900002F0AEF841EC100B6D1E04EBC50090ED75
:104FA000001B51EC100B53EC112B01F063FD41EC95
:104FB000100B35F00600E7D1022D36D0042D1CD0A1
:104FC000062D1CBFBDEC028B70BD53EC182B51ECB1
:104FD000100B02F08DF894ED0A1B53EC112B01F02D
:104FE00049FD53EC182B02F083F894ED081B53ECA9
:104FF000112B01F03FFD41EC100B53EC182B51EC41
:10500000100B02F075F894ED061B53EC112B01F018
:1050100031FD53EC182B02F06BF894ED040B53ECBC
:10502000102B01F027FD41EC100B53EC182B51EC29
:10503000100B02F05DF894ED021B53EC112B01F004
:1050400019FD53EC182B02F053F894ED001B53ECB0
:10505000112B01F00FFDBDEC028B41EC100B70BD6C
:1050600031B504462DED040B2DED0A8BB0EE41BA9F
:10507000F0EE61BA0B989DED0A0B20F00040B0F104
:10508000795F0DDA51EC100BFEF79CFE042808BF87
:1050900000F0A2F89DED0A0BBDEC0A8B05B030BD07
:1050A00053EC102B51EC100B02F022F841EC180BD2
:1050B0009DED0A0B53EC182B51EC100B02F018F875
:1050C00041EC190B2C48B0EE480AF0EE680A0521B5
:1050D0007844FFF749FF9FED2ACBB0EE40AAF0EEEF
:1050E00060AA9CB353EC1C2B51EC190B02F000F896
:1050F00041EC1C0B53EC1A2B51EC190B01F0F8FF8F
:105100009FED210B41EC190B53EC102B51EC1B0BB9
:1051100001F0EEFF53EC192B02F0F6F953EC182BCB
:1051200001F0E6FF53EC1B2B02F0EEF953EC1C2BC5
:1051300002F0EAF99DED0A1B53EC112B02F00CF979
:10514000BDEC0A8B05B041EC100B30BDFFE753EC12
:105150001A2B51EC180B01F0CBFF53EC1C2B01F078
:1051600089FC53EC192B01F0C3FF9DED0A1B53EC96
:10517000112B01F07FFCE3E70C2900000000000088
:10518000495555555555C5BF000000000000E03F8A
:1051900010B553EC102B51EC100B01F06BFC41ECF3
:1051A000100B10BD10B553EC112B51EC100B01F08E
:1051B00061FC41EC100B10BD9FED050B10B553ECDD
:1051C000102B51EC100B01F0A5FD41EC100B10BDA4
:1051D00000000000000000009FED050B10B553EC2F
:1051E000102B51EC100B01F083FF41EC100B10BDA4
:1051F000000000000000001030EE000A70470000C0
:10520000DFED020A80EEA00A7047000000000000F7
:105210009FED020A20EE000A704700000000001017
:1052200010B541EC100BFFF75BF851EC100B10BD03
:1052300010B502460023002003E052F820406340EE
:10524000401C8842F9D3184610BD000010B526480E
:10525000006840F2012188420FD1244824490A689D
:10526000026049684160FBF7DFF9224880ED000ADF
:10527000C0ED010A80ED021A2AE01B48006840F2E6
:10528000022188420FD11C4819490A680260496806
:105290004160FBF7C9F9194880ED000AC0ED010A29
:1052A00080ED021A14E01048006840F203218842A1
:1052B0000ED113480E490A68026049684160FBF745
:1052C000B3F9104880ED000AC0ED010A80ED021A22
:1052D00005480078401E012101FA00F00A490978CA
:1052E00008430949087010BDE00300204000002079
:1052F00010010020EC01002048000020F8010020EF
:105300005000002004020020A800002010B526480C
:10531000006840F2012188420FD1244824490A68DC
:10532000026049684160FBF77FF9224880ED000A7E
:10533000C0ED010A80ED021A2AE01B48006840F225
:10534000022188420FD11C4819490A680260496845
:105350004160FBF769F9194880ED000AC0ED010AC8
:1053600080ED021A14E01048006840F203218842E0
:105370000ED113480E490A68026049684160FBF784
:1053800053F9104880ED000AC0ED010A80ED021AC1
:1053900005480078801C012101FA00F00A490978CB
:1053A00008430949087010BD14040020580000206B
:1053B0002401002010020020600000201C020020B8
:1053C0006800002028020020A8000020074800688C
:1053D0000749B0FBF1F007490870044800684FF432
:1053E0007A71B0FBF1F00449086070474001002079
:1053F00040420F00440100204801002070B50346E0
:10540000002400210020002200254FF0E0267569CD
:105410000D4E367803FB06F44FF0E026B16910E03C
:105420004FF0E026B06988420BD0884202D20E1AB3
:10543000324402E02E1A0E4432440146A24200D306
:1054400000E0EDE700BF70BD4401002082B0CDE96F
:10545000000121F0004001909DED000B02B051ECE5
:10546000100B704700487047EC07002010B52DED79
:10547000108B84B0B0EE408AF0EE608A18EE100A0D
:1054800002F02CF941EC190B9FED640B53EC102B3F
:1054900001F02CFF04D29FED630AB0EE408A10E0C9
:1054A00018EE100A02F01AF941EC190B9FED5E0B91
:1054B00053EC102B01F0E0FD03D29FED5D0AB0EE3E
:1054C000408A18EE900A02F009F941EC190B9FEDA1
:1054D000590B53EC102B01F009FF04D29FED570A32
:1054E000F0EE408A10E018EE900A02F0F7F841EC76
:1054F000190B9FED530B53EC102B01F0BDFD03D2A4
:105500009FED510AF0EE408A504890ED000A20EEDF
:10551000000A30EE000A08EE480A08EEE80AD0ED6C
:10552000000AB0EE001A60EE810A90ED001A60EEFB
:10553000810A80EE201A11EE104A204602F0CEF8C1
:1055400041EC1A0BB0EE4A0AF0EE6A0AFEF784FC50
:10555000B0EE409AF0EE609A51EC190B01F058FA57
:105560000FEE100A3A4890ED000A3A48D0ED000AD2
:1055700030EE600A30EE0F0A374880ED010A3748F6
:10558000006802F0ABF841EC190B18EE900A02F03B
:10559000A5F841EC1D0BB1EE480A10EE100A02F01E
:1055A0009DF841EC1E0BB0EE4D1AF0EE6D1AB0EE08
:1055B0004E0AF0EE6E0AFEF7FFFF8DED000BB0EE27
:1055C000000ACFEE000A10EE904A204602F086F85C
:1055D00041EC1C0B9DED000B53EC102B01F04AFA33
:1055E00041EC1B0B01F008FA41EC1A0B53EC192BA0
:1055F00001F040FACDE902019DED020B51EC100BD8
:1056000001F006FA14490860084690ED000AD0ED52
:10561000010A04B0BDEC108B10BD00007B14AE4736
:10562000E17AB43F0AD7A33D7B14AE47E17AB4BF19
:105630000AD7A3BD986E1283C0CAD13F04568E3ECE
:105640009A9999999999A93FCDCC4C3DA8010020F0
:10565000AC010020A40100208C010020B00100203A
:1056600010B52DED108B82B0B0EE408AF0EE608A5E
:1056700018EE100A02F032F841EC190B9FED5F0BA7
:1056800053EC102B01F032FE04D29FED5E0AB0EE17
:10569000408A10E018EE100A02F020F841EC190BD5
:1056A0009FED590B53EC102B01F0E6FC03D29FED5C
:1056B000580AB0EE408A18EE900A02F00FF841EC5A
:1056C000190B9FED540B53EC102B01F00FFE04D27D
:1056D0009FED520AF0EE408A10E018EE900A01F0B9
:1056E000FDFF41EC190B9FED4E0B53EC102B01F01D
:1056F000C3FC03D29FED4C0AF0EE408A4B4890ED7C
:10570000000A20EE000A30EE000A08EE480A08EE11
:10571000E80AD0ED000AB0EE001A60EE810A90EDC2
:10572000001A60EE810A80EE201A11EE104A20461F
:1057300001F0D4FF41EC1A0BB0EE4A0AF0EE6A0A0F
:10574000FEF78AFBB0EE409AF0EE609A51EC190B2E
:1057500001F05EF90FEE100A354890ED000A30EEC8
:105760004F0A344880ED010A3348006801F0B6FF63
:1057700041EC190B18EE900A01F0B0FF41EC1D0B43
:10578000B1EE480A10EE100A01F0A8FF41EC1E0B22
:10579000B0EE4D1AF0EE6D1AB0EE4E0AF0EE6E0A53
:1057A000FEF70AFFB0EE40BAF0EE60BAB0EE000AC3
:1057B000CFEE000A10EE904A204601F08FFF41EC38
:1057C0001C0B53EC1B2B01F055F941EC1A0B53EC5D
:1057D000192B01F04FF9CDE900019DED000B51ECC3
:1057E000100B01F015F913490860084690ED000A06
:1057F000D0ED010A02B0BDEC108B10BD7B14AE479A
:10580000E17AB43F0AD7A33D7B14AE47E17AB4BF37
:105810000AD7A3BD986E1283C0CAD13F04568E3EEC
:105820009A9999999999A93FCDCC4C3DA80100200E
:10583000A40100209C010020B401002010B52DED32
:10584000108BB0EE408AF0EE608AB1EE480A6048F4
:10585000D0ED000A30EE200A5E4880ED000A5E4876
:1058600090ED000A30EE680A5C4880ED000A5C4862
:1058700090ED000A5948D0ED000A30EE600A554814
:10588000D0ED000A30EE600A10EE101A084601F062
:1058900025FF41EC1E0BB0EE4E0AF0EE6E0AFEF74D
:1058A00083FFB0EE40CAF0EE60CA4E48006801F0D7
:1058B00015FF41EC1D0B53EC1C2B01F019FC41ECC6
:1058C0001A0B4448006801F009FF41EC1E0BB0EED2
:1058D0004E0AF0EE6E0AFEF767FFB0EE40CAF0EE39
:1058E00060CA404890ED000AB1EE400A10EE100A7E
:1058F00001F0F4FE41EC1D0B53EC1C2B01F0F8FB06
:1059000041EC1B0B53EC1A2B01F0B4F841EC190BD2
:1059100001F072F841EC1F0B01F07AF8324908608F
:105920002F4890ED000A2D48D0ED000A30EE600AB5
:105930002848D0ED000A30EE600A10EE101A084632
:1059400001F0CCFE41EC1E0BB0EE4E0AF0EE6E0AFA
:10595000FEF7D2FFB0EE40CAF0EE60CA2148006800
:1059600001F0BCFE41EC1D0B53EC1C2B01F0C0FB05
:1059700041EC1A0B1748006801F0B0FE41EC1E0B19
:10598000B0EE4E0AF0EE6E0AFEF7B6FFB0EE40CA79
:10599000F0EE60CA1348006801F0A0FE41EC1D0B58
:1059A00053EC1C2B01F0A4FB41EC1B0B53EC1A2B0A
:1059B00001F060F841EC190B01F02AF80A4948603F
:1059C000084690ED000AD0ED010ABDEC108B10BD29
:1059D000B0010020B8010020AC010020BC01002073
:1059E000A4010020A80100208401002010B52DEDA5
:1059F0000E8BB0EE408AF0EE608A594890ED000AB6
:105A000038EE400A574880ED000A5748C0ED008A3A
:105A1000564890ED000A5448D0ED000A30EE600A76
:105A20005048D0ED000A30EE600A10EE101A084619
:105A300001F054FE41EC1E0BB0EE4E0AF0EE6E0A81
:105A4000FEF7B2FEB0EE40CAF0EE60CA4848006809
:105A500001F044FE41EC1D0B53EC1C2B01F048FB04
:105A600041EC1A0B3F48006801F038FE41EC1E0B78
:105A7000B0EE4E0AF0EE6E0AFEF796FEB0EE40CAA9
:105A8000F0EE60CA3A48006801F028FE41EC1D0BB8
:105A900053EC1C2B01F02CFB41EC1B0B53EC1A2B91
:105AA00001F032FD41EC190B00F0B2FF3149086002
:105AB0002E4890ED000A2C48D0ED000A30EE600A26
:105AC0002848D0ED000A30EE600A10EE101A0846A1
:105AD00001F004FE41EC1E0BB0EE4E0AF0EE6E0A31
